{
  "_format": "hh-sol-artifact-1",
  "contractName": "ExamResults",
  "sourceName": "contracts/ExamResults.sol",
  "abi": [
    {
      "inputs": [
        {
          "internalType": "address",
          "name": "_examManager",
          "type": "address"
        },
        {
          "internalType": "address",
          "name": "_examSubmission",
          "type": "address"
        }
      ],
      "stateMutability": "nonpayable",
      "type": "constructor"
    },
    {
      "anonymous": false,
      "inputs": [
        {
          "indexed": true,
          "internalType": "address",
          "name": "student",
          "type": "address"
        },
        {
          "indexed": true,
          "internalType": "uint256",
          "name": "examId",
          "type": "uint256"
        },
        {
          "indexed": false,
          "internalType": "uint256",
          "name": "score",
          "type": "uint256"
        },
        {
          "indexed": false,
          "internalType": "uint256",
          "name": "totalMarks",
          "type": "uint256"
        }
      ],
      "name": "ResultPublished",
      "type": "event"
    },
    {
      "inputs": [],
      "name": "admin",
      "outputs": [
        {
          "internalType": "address",
          "name": "",
          "type": "address"
        }
      ],
      "stateMutability": "view",
      "type": "function"
    },
    {
      "inputs": [],
      "name": "examManager",
      "outputs": [
        {
          "internalType": "contract IExamManager",
          "name": "",
          "type": "address"
        }
      ],
      "stateMutability": "view",
      "type": "function"
    },
    {
      "inputs": [],
      "name": "examSubmission",
      "outputs": [
        {
          "internalType": "contract IExamSubmission",
          "name": "",
          "type": "address"
        }
      ],
      "stateMutability": "view",
      "type": "function"
    },
    {
      "inputs": [
        {
          "internalType": "address",
          "name": "_student",
          "type": "address"
        }
      ],
      "name": "getAllResults",
      "outputs": [
        {
          "components": [
            {
              "internalType": "uint256",
              "name": "examId",
              "type": "uint256"
            },
            {
              "internalType": "uint256",
              "name": "score",
              "type": "uint256"
            },
            {
              "internalType": "uint256",
              "name": "totalMarks",
              "type": "uint256"
            },
            {
              "internalType": "uint256",
              "name": "timestamp",
              "type": "uint256"
            },
            {
              "internalType": "string",
              "name": "ipfsHash",
              "type": "string"
            }
          ],
          "internalType": "struct ExamResults.Result[]",
          "name": "",
          "type": "tuple[]"
        }
      ],
      "stateMutability": "view",
      "type": "function"
    },
    {
      "inputs": [
        {
          "internalType": "address",
          "name": "",
          "type": "address"
        },
        {
          "internalType": "uint256",
          "name": "",
          "type": "uint256"
        }
      ],
      "name": "studentResults",
      "outputs": [
        {
          "internalType": "uint256",
          "name": "examId",
          "type": "uint256"
        },
        {
          "internalType": "uint256",
          "name": "score",
          "type": "uint256"
        },
        {
          "internalType": "uint256",
          "name": "totalMarks",
          "type": "uint256"
        },
        {
          "internalType": "uint256",
          "name": "timestamp",
          "type": "uint256"
        },
        {
          "internalType": "string",
          "name": "ipfsHash",
          "type": "string"
        }
      ],
      "stateMutability": "view",
      "type": "function"
    },
    {
      "inputs": [
        {
          "internalType": "address",
          "name": "_student",
          "type": "address"
        },
        {
          "internalType": "uint256",
          "name": "_examId",
          "type": "uint256"
        },
        {
          "internalType": "uint256",
          "name": "_score",
          "type": "uint256"
        },
        {
          "internalType": "uint256",
          "name": "_totalMarks",
          "type": "uint256"
        },
        {
          "internalType": "string",
          "name": "_ipfsHash",
          "type": "string"
        }
      ],
      "name": "submitResult",
      "outputs": [],
      "stateMutability": "nonpayable",
      "type": "function"
    }
  ],
  "bytecode": "0x608060405234801561001057600080fd5b506040516114763803806114768339818101604052810190610032919061015f565b33600260006101000a81548173ffffffffffffffffffffffffffffffffffffffff021916908373ffffffffffffffffffffffffffffffffffffffff16021790555081600360006101000a81548173ffffffffffffffffffffffffffffffffffffffff021916908373ffffffffffffffffffffffffffffffffffffffff16021790555080600460006101000a81548173ffffffffffffffffffffffffffffffffffffffff021916908373ffffffffffffffffffffffffffffffffffffffff160217905550505061019f565b600080fd5b600073ffffffffffffffffffffffffffffffffffffffff82169050919050565b600061012c82610101565b9050919050565b61013c81610121565b811461014757600080fd5b50565b60008151905061015981610133565b92915050565b60008060408385031215610176576101756100fc565b5b60006101848582860161014a565b92505060206101958582860161014a565b9150509250929050565b6112c8806101ae6000396000f3fe608060405234801561001057600080fd5b50600436106100625760003560e01c80633565aa9b1461006757806342909a921461008357806355c94eeb146100a157806369df31a8146100d15780637691ce2014610105578063f851a44014610123575b600080fd5b610081600480360381019061007c919061097d565b610141565b005b61008b61038a565b6040516100989190610a73565b60405180910390f35b6100bb60048036038101906100b69190610a8e565b6103b0565b6040516100c89190610c81565b60405180910390f35b6100eb60048036038101906100e69190610ca3565b610649565b6040516100fc959493929190610d3c565b60405180910390f35b61010d610714565b60405161011a9190610db7565b60405180910390f35b61012b61073a565b6040516101389190610de1565b60405180910390f35b600260009054906101000a900473ffffffffffffffffffffffffffffffffffffffff1673ffffffffffffffffffffffffffffffffffffffff163373ffffffffffffffffffffffffffffffffffffffff16146101d1576040517f08c379a00000000000000000000000000000000000000000000000000000000081526004016101c890610e6e565b60405180910390fd5b6000815111610215576040517f08c379a000000000000000000000000000000000000000000000000000000000815260040161020c90610eda565b60405180910390fd5b6040518060a0016040528085815260200184815260200183815260200142815260200182815250600160008773ffffffffffffffffffffffffffffffffffffffff1673ffffffffffffffffffffffffffffffffffffffff16815260200190815260200160002060008681526020019081526020016000206000820151816000015560208201518160010155604082015181600201556060820151816003015560808201518160040190816102c991906110fc565b509050506000808673ffffffffffffffffffffffffffffffffffffffff1673ffffffffffffffffffffffffffffffffffffffff168152602001908152602001600020849080600181540180825580915050600190039060005260206000200160009091909190915055838573ffffffffffffffffffffffffffffffffffffffff167f4f2137a4ca0e22627676c7fdb1b2f95faf370c25c6e44ffa0c510c9a40994db7858560405161037b9291906111ce565b60405180910390a35050505050565b600460009054906101000a900473ffffffffffffffffffffffffffffffffffffffff1681565b606060008060008473ffffffffffffffffffffffffffffffffffffffff1673ffffffffffffffffffffffffffffffffffffffff1681526020019081526020016000208054905090506000811161043b576040517f08c379a000000000000000000000000000000000000000000000000000000000815260040161043290611243565b60405180910390fd5b60008167ffffffffffffffff81111561045757610456610852565b5b60405190808252806020026020018201604052801561049057816020015b61047d610760565b8152602001906001900390816104755790505b50905060005b8281101561063e5760008060008773ffffffffffffffffffffffffffffffffffffffff1673ffffffffffffffffffffffffffffffffffffffff16815260200190815260200160002082815481106104f0576104ef611263565b5b90600052602060002001549050600160008773ffffffffffffffffffffffffffffffffffffffff1673ffffffffffffffffffffffffffffffffffffffff16815260200190815260200160002060008281526020019081526020016000206040518060a00160405290816000820154815260200160018201548152602001600282015481526020016003820154815260200160048201805461059090610f29565b80601f01602080910402602001604051908101604052809291908181526020018280546105bc90610f29565b80156106095780601f106105de57610100808354040283529160200191610609565b820191906000526020600020905b8154815290600101906020018083116105ec57829003601f168201915b50505050508152505083838151811061062557610624611263565b5b6020026020010181905250508080600101915050610496565b508092505050919050565b60016020528160005260406000206020528060005260406000206000915091505080600001549080600101549080600201549080600301549080600401805461069190610f29565b80601f01602080910402602001604051908101604052809291908181526020018280546106bd90610f29565b801561070a5780601f106106df5761010080835404028352916020019161070a565b820191906000526020600020905b8154815290600101906020018083116106ed57829003601f168201915b5050505050905085565b600360009054906101000a900473ffffffffffffffffffffffffffffffffffffffff1681565b600260009054906101000a900473ffffffffffffffffffffffffffffffffffffffff1681565b6040518060a0016040528060008152602001600081526020016000815260200160008152602001606081525090565b6000604051905090565b600080fd5b600080fd5b600073ffffffffffffffffffffffffffffffffffffffff82169050919050565b60006107ce826107a3565b9050919050565b6107de816107c3565b81146107e957600080fd5b50565b6000813590506107fb816107d5565b92915050565b6000819050919050565b61081481610801565b811461081f57600080fd5b50565b6000813590506108318161080b565b92915050565b600080fd5b600080fd5b6000601f19601f8301169050919050565b7f4e487b7100000000000000000000000000000000000000000000000000000000600052604160045260246000fd5b61088a82610841565b810181811067ffffffffffffffff821117156108a9576108a8610852565b5b80604052505050565b60006108bc61078f565b90506108c88282610881565b919050565b600067ffffffffffffffff8211156108e8576108e7610852565b5b6108f182610841565b9050602081019050919050565b82818337600083830152505050565b600061092061091b846108cd565b6108b2565b90508281526020810184848401111561093c5761093b61083c565b5b6109478482856108fe565b509392505050565b600082601f83011261096457610963610837565b5b813561097484826020860161090d565b91505092915050565b600080600080600060a0868803121561099957610998610799565b5b60006109a7888289016107ec565b95505060206109b888828901610822565b94505060406109c988828901610822565b93505060606109da88828901610822565b925050608086013567ffffffffffffffff8111156109fb576109fa61079e565b5b610a078882890161094f565b9150509295509295909350565b6000819050919050565b6000610a39610a34610a2f846107a3565b610a14565b6107a3565b9050919050565b6000610a4b82610a1e565b9050919050565b6000610a5d82610a40565b9050919050565b610a6d81610a52565b82525050565b6000602082019050610a886000830184610a64565b92915050565b600060208284031215610aa457610aa3610799565b5b6000610ab2848285016107ec565b91505092915050565b600081519050919050565b600082825260208201905092915050565b6000819050602082019050919050565b610af081610801565b82525050565b600081519050919050565b600082825260208201905092915050565b60005b83811015610b30578082015181840152602081019050610b15565b60008484015250505050565b6000610b4782610af6565b610b518185610b01565b9350610b61818560208601610b12565b610b6a81610841565b840191505092915050565b600060a083016000830151610b8d6000860182610ae7565b506020830151610ba06020860182610ae7565b506040830151610bb36040860182610ae7565b506060830151610bc66060860182610ae7565b5060808301518482036080860152610bde8282610b3c565b9150508091505092915050565b6000610bf78383610b75565b905092915050565b6000602082019050919050565b6000610c1782610abb565b610c218185610ac6565b935083602082028501610c3385610ad7565b8060005b85811015610c6f5784840389528151610c508582610beb565b9450610c5b83610bff565b925060208a01995050600181019050610c37565b50829750879550505050505092915050565b60006020820190508181036000830152610c9b8184610c0c565b905092915050565b60008060408385031215610cba57610cb9610799565b5b6000610cc8858286016107ec565b9250506020610cd985828601610822565b9150509250929050565b610cec81610801565b82525050565b600082825260208201905092915050565b6000610d0e82610af6565b610d188185610cf2565b9350610d28818560208601610b12565b610d3181610841565b840191505092915050565b600060a082019050610d516000830188610ce3565b610d5e6020830187610ce3565b610d6b6040830186610ce3565b610d786060830185610ce3565b8181036080830152610d8a8184610d03565b90509695505050505050565b6000610da182610a40565b9050919050565b610db181610d96565b82525050565b6000602082019050610dcc6000830184610da8565b92915050565b610ddb816107c3565b82525050565b6000602082019050610df66000830184610dd2565b92915050565b7f4f6e6c792061646d696e2063616e20706572666f726d2074686973206163746960008201527f6f6e000000000000000000000000000000000000000000000000000000000000602082015250565b6000610e58602283610cf2565b9150610e6382610dfc565b604082019050919050565b60006020820190508181036000830152610e8781610e4b565b9050919050565b7f496e76616c696420495046532048617368000000000000000000000000000000600082015250565b6000610ec4601183610cf2565b9150610ecf82610e8e565b602082019050919050565b60006020820190508181036000830152610ef381610eb7565b9050919050565b7f4e487b7100000000000000000000000000000000000000000000000000000000600052602260045260246000fd5b60006002820490506001821680610f4157607f821691505b602082108103610f5457610f53610efa565b5b50919050565b60008190508160005260206000209050919050565b60006020601f8301049050919050565b600082821b905092915050565b600060088302610fbc7fffffffffffffffffffffffffffffffffffffffffffffffffffffffffffffffff82610f7f565b610fc68683610f7f565b95508019841693508086168417925050509392505050565b6000610ff9610ff4610fef84610801565b610a14565b610801565b9050919050565b6000819050919050565b61101383610fde565b61102761101f82611000565b848454610f8c565b825550505050565b600090565b61103c61102f565b61104781848461100a565b505050565b5b8181101561106b57611060600082611034565b60018101905061104d565b5050565b601f8211156110b05761108181610f5a565b61108a84610f6f565b81016020851015611099578190505b6110ad6110a585610f6f565b83018261104c565b50505b505050565b600082821c905092915050565b60006110d3600019846008026110b5565b1980831691505092915050565b60006110ec83836110c2565b9150826002028217905092915050565b61110582610af6565b67ffffffffffffffff81111561111e5761111d610852565b5b6111288254610f29565b61113382828561106f565b600060209050601f8311600181146111665760008415611154578287015190505b61115e85826110e0565b8655506111c6565b601f19841661117486610f5a565b60005b8281101561119c57848901518255600182019150602085019450602081019050611177565b868310156111b957848901516111b5601f8916826110c2565b8355505b6001600288020188555050505b505050505050565b60006040820190506111e36000830185610ce3565b6111f06020830184610ce3565b9392505050565b7f4e6f20726573756c747320666f756e6421000000000000000000000000000000600082015250565b600061122d601183610cf2565b9150611238826111f7565b602082019050919050565b6000602082019050818103600083015261125c81611220565b9050919050565b7f4e487b7100000000000000000000000000000000000000000000000000000000600052603260045260246000fdfea26469706673582212204ef67f4b84f8eb99bba9fb5d65af4ebf1635de203b0b98ea6f3348fec2e82c5864736f6c634300081c0033",
  "linkReferences": {},
  "deployedLinkReferences": {}
}