{
  "_format": "hh-sol-artifact-1",
  "contractName": "StudentRegistry",
  "sourceName": "contracts/RegisterStudent.sol",
  "abi": [
    {
      "inputs": [],
      "stateMutability": "nonpayable",
      "type": "constructor"
    },
    {
      "anonymous": false,
      "inputs": [
        {
          "indexed": true,
          "internalType": "address",
          "name": "student",
          "type": "address"
        }
      ],
      "name": "StudentDeleted",
      "type": "event"
    },
    {
      "anonymous": false,
      "inputs": [
        {
          "indexed": true,
          "internalType": "address",
          "name": "student",
          "type": "address"
        },
        {
          "indexed": false,
          "internalType": "string",
          "name": "name",
          "type": "string"
        },
        {
          "indexed": false,
          "internalType": "string",
          "name": "rollNo",
          "type": "string"
        },
        {
          "indexed": false,
          "internalType": "string",
          "name": "ipfsHash",
          "type": "string"
        }
      ],
      "name": "StudentRegistered",
      "type": "event"
    },
    {
      "anonymous": false,
      "inputs": [
        {
          "indexed": true,
          "internalType": "address",
          "name": "student",
          "type": "address"
        },
        {
          "indexed": false,
          "internalType": "string",
          "name": "name",
          "type": "string"
        },
        {
          "indexed": false,
          "internalType": "string",
          "name": "rollNo",
          "type": "string"
        },
        {
          "indexed": false,
          "internalType": "string",
          "name": "ipfsHash",
          "type": "string"
        }
      ],
      "name": "StudentUpdated",
      "type": "event"
    },
    {
      "inputs": [],
      "name": "admin",
      "outputs": [
        {
          "internalType": "address",
          "name": "",
          "type": "address"
        }
      ],
      "stateMutability": "view",
      "type": "function"
    },
    {
      "inputs": [],
      "name": "deleteStudent",
      "outputs": [],
      "stateMutability": "nonpayable",
      "type": "function"
    },
    {
      "inputs": [
        {
          "internalType": "address",
          "name": "_student",
          "type": "address"
        }
      ],
      "name": "getStudent",
      "outputs": [
        {
          "internalType": "string",
          "name": "",
          "type": "string"
        },
        {
          "internalType": "string",
          "name": "",
          "type": "string"
        },
        {
          "internalType": "string",
          "name": "",
          "type": "string"
        }
      ],
      "stateMutability": "view",
      "type": "function"
    },
    {
      "inputs": [
        {
          "internalType": "string",
          "name": "_name",
          "type": "string"
        },
        {
          "internalType": "string",
          "name": "_rollNo",
          "type": "string"
        },
        {
          "internalType": "string",
          "name": "_ipfsHash",
          "type": "string"
        }
      ],
      "name": "registerStudent",
      "outputs": [],
      "stateMutability": "nonpayable",
      "type": "function"
    },
    {
      "inputs": [
        {
          "internalType": "address",
          "name": "",
          "type": "address"
        }
      ],
      "name": "students",
      "outputs": [
        {
          "internalType": "string",
          "name": "name",
          "type": "string"
        },
        {
          "internalType": "string",
          "name": "rollNo",
          "type": "string"
        },
        {
          "internalType": "string",
          "name": "ipfsHash",
          "type": "string"
        }
      ],
      "stateMutability": "view",
      "type": "function"
    },
    {
      "inputs": [
        {
          "internalType": "address",
          "name": "_student",
          "type": "address"
        },
        {
          "internalType": "string",
          "name": "_name",
          "type": "string"
        },
        {
          "internalType": "string",
          "name": "_rollNo",
          "type": "string"
        },
        {
          "internalType": "string",
          "name": "_ipfsHash",
          "type": "string"
        }
      ],
      "name": "updateStudent",
      "outputs": [],
      "stateMutability": "nonpayable",
      "type": "function"
    }
  ],
  "bytecode": "0x6080604052348015600f57600080fd5b50336000806101000a81548173ffffffffffffffffffffffffffffffffffffffff021916908373ffffffffffffffffffffffffffffffffffffffff1602179055506114288061005f6000396000f3fe608060405234801561001057600080fd5b50600436106100625760003560e01c8063105cbcdc146100675780636b7b44d71461008357806393e47f15146100b5578063a6c807a9146100d1578063ec02547f14610103578063f851a4401461010d575b600080fd5b610081600480360381019061007c9190610d1c565b61012b565b005b61009d60048036038101906100989190610dd7565b610343565b6040516100ac93929190610e83565b60405180910390f35b6100cf60048036038101906100ca9190610ecf565b610650565b005b6100eb60048036038101906100e69190610dd7565b6107d7565b6040516100fa93929190610e83565b60405180910390f35b61010b610999565b005b610115610ae3565b6040516101229190610f85565b60405180910390f35b60008054906101000a900473ffffffffffffffffffffffffffffffffffffffff1673ffffffffffffffffffffffffffffffffffffffff163373ffffffffffffffffffffffffffffffffffffffff16146101b9576040517f08c379a00000000000000000000000000000000000000000000000000000000081526004016101b090611012565b60405180910390fd5b836000600160008373ffffffffffffffffffffffffffffffffffffffff1673ffffffffffffffffffffffffffffffffffffffff168152602001908152602001600020600001805461020990611061565b90501161024b576040517f08c379a0000000000000000000000000000000000000000000000000000000008152600401610242906110de565b60405180910390fd5b604051806060016040528085815260200184815260200183815250600160008773ffffffffffffffffffffffffffffffffffffffff1673ffffffffffffffffffffffffffffffffffffffff16815260200190815260200160002060008201518160000190816102ba91906112b4565b5060208201518160010190816102d091906112b4565b5060408201518160020190816102e691906112b4565b509050508473ffffffffffffffffffffffffffffffffffffffff167f547a3c8b13d2a4325772de411776385df55be6e22ce4b684f7cd20aafea97c7885858560405161033493929190610e83565b60405180910390a25050505050565b60608060606000600160008673ffffffffffffffffffffffffffffffffffffffff1673ffffffffffffffffffffffffffffffffffffffff168152602001908152602001600020600001805461039790611061565b9050116103d9576040517f08c379a00000000000000000000000000000000000000000000000000000000081526004016103d0906110de565b60405180910390fd5b600160008573ffffffffffffffffffffffffffffffffffffffff1673ffffffffffffffffffffffffffffffffffffffff168152602001908152602001600020600001600160008673ffffffffffffffffffffffffffffffffffffffff1673ffffffffffffffffffffffffffffffffffffffff168152602001908152602001600020600101600160008773ffffffffffffffffffffffffffffffffffffffff1673ffffffffffffffffffffffffffffffffffffffff1681526020019081526020016000206002018280546104ab90611061565b80601f01602080910402602001604051908101604052809291908181526020018280546104d790611061565b80156105245780601f106104f957610100808354040283529160200191610524565b820191906000526020600020905b81548152906001019060200180831161050757829003601f168201915b5050505050925081805461053790611061565b80601f016020809104026020016040519081016040528092919081815260200182805461056390611061565b80156105b05780601f10610585576101008083540402835291602001916105b0565b820191906000526020600020905b81548152906001019060200180831161059357829003601f168201915b505050505091508080546105c390611061565b80601f01602080910402602001604051908101604052809291908181526020018280546105ef90611061565b801561063c5780601f106106115761010080835404028352916020019161063c565b820191906000526020600020905b81548152906001019060200180831161061f57829003601f168201915b505050505090509250925092509193909250565b6000600160003373ffffffffffffffffffffffffffffffffffffffff1673ffffffffffffffffffffffffffffffffffffffff168152602001908152602001600020600001805461069f90611061565b9050146106e1576040517f08c379a00000000000000000000000000000000000000000000000000000000081526004016106d8906113d2565b60405180910390fd5b604051806060016040528084815260200183815260200182815250600160003373ffffffffffffffffffffffffffffffffffffffff1673ffffffffffffffffffffffffffffffffffffffff168152602001908152602001600020600082015181600001908161075091906112b4565b50602082015181600101908161076691906112b4565b50604082015181600201908161077c91906112b4565b509050503373ffffffffffffffffffffffffffffffffffffffff167f8823cc416ad0a1d2daf55ad9ad5f416ddf37a59230f0197f7c4fb404c903cd0b8484846040516107ca93929190610e83565b60405180910390a2505050565b60016020528060005260406000206000915090508060000180546107fa90611061565b80601f016020809104026020016040519081016040528092919081815260200182805461082690611061565b80156108735780601f1061084857610100808354040283529160200191610873565b820191906000526020600020905b81548152906001019060200180831161085657829003601f168201915b50505050509080600101805461088890611061565b80601f01602080910402602001604051908101604052809291908181526020018280546108b490611061565b80156109015780601f106108d657610100808354040283529160200191610901565b820191906000526020600020905b8154815290600101906020018083116108e457829003601f168201915b50505050509080600201805461091690611061565b80601f016020809104026020016040519081016040528092919081815260200182805461094290611061565b801561098f5780601f106109645761010080835404028352916020019161098f565b820191906000526020600020905b81548152906001019060200180831161097257829003601f168201915b5050505050905083565b336000600160008373ffffffffffffffffffffffffffffffffffffffff1673ffffffffffffffffffffffffffffffffffffffff16815260200190815260200160002060000180546109e990611061565b905011610a2b576040517f08c379a0000000000000000000000000000000000000000000000000000000008152600401610a22906110de565b60405180910390fd5b600160003373ffffffffffffffffffffffffffffffffffffffff1673ffffffffffffffffffffffffffffffffffffffff16815260200190815260200160002060008082016000610a7b9190610b07565b600182016000610a8b9190610b07565b600282016000610a9b9190610b07565b50503373ffffffffffffffffffffffffffffffffffffffff167f8b92780c414b9f0cc7e66f9ea0f7eb6a8cf72ac0571cd2445169f4c35c37418360405160405180910390a250565b60008054906101000a900473ffffffffffffffffffffffffffffffffffffffff1681565b508054610b1390611061565b6000825580601f10610b255750610b44565b601f016020900490600052602060002090810190610b439190610b47565b5b50565b5b80821115610b60576000816000905550600101610b48565b5090565b6000604051905090565b600080fd5b600080fd5b600073ffffffffffffffffffffffffffffffffffffffff82169050919050565b6000610ba382610b78565b9050919050565b610bb381610b98565b8114610bbe57600080fd5b50565b600081359050610bd081610baa565b92915050565b600080fd5b600080fd5b6000601f19601f8301169050919050565b7f4e487b7100000000000000000000000000000000000000000000000000000000600052604160045260246000fd5b610c2982610be0565b810181811067ffffffffffffffff82111715610c4857610c47610bf1565b5b80604052505050565b6000610c5b610b64565b9050610c678282610c20565b919050565b600067ffffffffffffffff821115610c8757610c86610bf1565b5b610c9082610be0565b9050602081019050919050565b82818337600083830152505050565b6000610cbf610cba84610c6c565b610c51565b905082815260208101848484011115610cdb57610cda610bdb565b5b610ce6848285610c9d565b509392505050565b600082601f830112610d0357610d02610bd6565b5b8135610d13848260208601610cac565b91505092915050565b60008060008060808587031215610d3657610d35610b6e565b5b6000610d4487828801610bc1565b945050602085013567ffffffffffffffff811115610d6557610d64610b73565b5b610d7187828801610cee565b935050604085013567ffffffffffffffff811115610d9257610d91610b73565b5b610d9e87828801610cee565b925050606085013567ffffffffffffffff811115610dbf57610dbe610b73565b5b610dcb87828801610cee565b91505092959194509250565b600060208284031215610ded57610dec610b6e565b5b6000610dfb84828501610bc1565b91505092915050565b600081519050919050565b600082825260208201905092915050565b60005b83811015610e3e578082015181840152602081019050610e23565b60008484015250505050565b6000610e5582610e04565b610e5f8185610e0f565b9350610e6f818560208601610e20565b610e7881610be0565b840191505092915050565b60006060820190508181036000830152610e9d8186610e4a565b90508181036020830152610eb18185610e4a565b90508181036040830152610ec58184610e4a565b9050949350505050565b600080600060608486031215610ee857610ee7610b6e565b5b600084013567ffffffffffffffff811115610f0657610f05610b73565b5b610f1286828701610cee565b935050602084013567ffffffffffffffff811115610f3357610f32610b73565b5b610f3f86828701610cee565b925050604084013567ffffffffffffffff811115610f6057610f5f610b73565b5b610f6c86828701610cee565b9150509250925092565b610f7f81610b98565b82525050565b6000602082019050610f9a6000830184610f76565b92915050565b7f4f6e6c792061646d696e2063616e20706572666f726d2074686973206163746960008201527f6f6e000000000000000000000000000000000000000000000000000000000000602082015250565b6000610ffc602283610e0f565b915061100782610fa0565b604082019050919050565b6000602082019050818103600083015261102b81610fef565b9050919050565b7f4e487b7100000000000000000000000000000000000000000000000000000000600052602260045260246000fd5b6000600282049050600182168061107957607f821691505b60208210810361108c5761108b611032565b5b50919050565b7f53747564656e74206e6f74207265676973746572656400000000000000000000600082015250565b60006110c8601683610e0f565b91506110d382611092565b602082019050919050565b600060208201905081810360008301526110f7816110bb565b9050919050565b60008190508160005260206000209050919050565b60006020601f8301049050919050565b600082821b905092915050565b6000600883026111607fffffffffffffffffffffffffffffffffffffffffffffffffffffffffffffffff82611123565b61116a8683611123565b95508019841693508086168417925050509392505050565b6000819050919050565b6000819050919050565b60006111b16111ac6111a784611182565b61118c565b611182565b9050919050565b6000819050919050565b6111cb83611196565b6111df6111d7826111b8565b848454611130565b825550505050565b600090565b6111f46111e7565b6111ff8184846111c2565b505050565b5b81811015611223576112186000826111ec565b600181019050611205565b5050565b601f82111561126857611239816110fe565b61124284611113565b81016020851015611251578190505b61126561125d85611113565b830182611204565b50505b505050565b600082821c905092915050565b600061128b6000198460080261126d565b1980831691505092915050565b60006112a4838361127a565b9150826002028217905092915050565b6112bd82610e04565b67ffffffffffffffff8111156112d6576112d5610bf1565b5b6112e08254611061565b6112eb828285611227565b600060209050601f83116001811461131e576000841561130c578287015190505b6113168582611298565b86555061137e565b601f19841661132c866110fe565b60005b828110156113545784890151825560018201915060208501945060208101905061132f565b86831015611371578489015161136d601f89168261127a565b8355505b6001600288020188555050505b505050505050565b7f416c726561647920726567697374657265640000000000000000000000000000600082015250565b60006113bc601283610e0f565b91506113c782611386565b602082019050919050565b600060208201905081810360008301526113eb816113af565b905091905056fea26469706673582212202e3566685fe9e5ff3c1ebf0a3b290ec91c8d3c6b9acffeba87ccd03d3618b6d564736f6c634300081c0033",
  "linkReferences": {},
  "deployedLinkReferences": {}
}